:100000000C94AB030C94F2030C94F2030C94F203E3
:100010000C94F2030C94F2030C94F2030C94F2038C
:100020000C94F2030C94F2030C946F1E0C94421F78
:100030000C9484150C94F2030C94F2030C94F203C8
:100040000C94F2030C94F2030C94F2030C94F2035C
:100050000C94F2030C94E5150C94F2030C94F20347
:100060000C94F2030C94F2030C94F2030C94F2033C
:100070000C94F2030C94F2030C94F2030C94F2032C
:100080000C94F2030C94F2030C94F2030C94F2031C
:100090000C94F2030C94F2030C94F2030C94F2030C
:1000A0000C94F2030C94F2030C94F203013902391C
:1000B00000016402640001E001E101E301090209B9
:1000C00002E302E102E00001E001E101E3011502C7
:1000D0001502E302E102E00001E001E101E30108B1
:1000E000020802E302E102E00001E001E101E301B4
:1000F00014021402E302E102E00001E001E101E385
:100100000107020702E302E102E00001E001E10170
:10011000E30104020402E302E102E00001E001E184
:1001200001E3011A021A02E302E102E00001E00128
:10013000E101E30116021602E302E102E00001E33D
:1001400001E1011602E102E302160029001E001F70
:100150000020002100220023002B0014001A0008B8
:10016000001500170001510A3004001600070009AD
:10017000000A004C00E10009301D001B00060019B8
:10018000002800E000E300E200015146002C002CB2
:100190000035003A003B003C003D003E003F0001BE
:1001A0000005300230063007300100010001000375
:1001B0003001300430083001000100A900010001C5
:1001C000000100010001000100AA0001000100017E
:1001D00000003001000100010001000100010001E8
:1001E0000001000100010001000100010001000107
:1001F00000010001000100010001000100010001F7
:1002000000010001000100010001000100010001E6
:1002100000010001000100010001000100010001D6
:1005A000000100010001000100010012036B006561
:1005B00000790062006F00610072006400000016A4
:1005C0000371006D006B006200750069006C0064CF
:1005D000006500720000000403090409026D0004B4
:1005E0000100A0FA09040000010301010009211122
:1005F0000100012240000705810308000A090401E7
:10060000000103010200092111010001224D000730
:1006100005820308000A0904020001030000000922
:1006200021110100012236000705830308000A0991
:100630000403000103000000092111010001223917
:1006400000070584032000011201100100000008CA
:10065000EDFE606001000102000105010906A10133
:10066000050719E029E715002501950875018102A4
:100670000508190129059505750191029501750374
:1006800091010507190029F71500250195F8750155
:100690008102C005010980A101850216010026031F
:1006A000001A81002A8300751095018100C0050C95
:1006B0000901A1018503160100269C021A01002AE6
:1006C0009C02751095018100C005010902A1010974
:1006D00001A10005091901290515002501950575D8
:1006E0000181029501750381010501093009311568
:1006F00081257F95027508810609381581257F952A
:100700000175088106050C0A38021581257F9501BF
:1007100075088106C0C005010906A101050719E099
:1007200029E71500250195087501810295017508D5
:1007300081010508190129059505750191029501A9
:10074000750391010507190029FF150026FF009583
:100750000675088100C011241FBECFEFDAE0DEBFAE
:10076000CDBF04B603FE27C080911E0290911F02E8
:10077000A0912002B09121028730904BA740B04B4E
:10078000D1F410921E0210921F02109220021092B9
:10079000210214BE84B7877F84BF0FB6F894A89552
:1007A00080916000886180936000109260000FBEAD
:1007B000E0E0F8E3099511E0A0E0B1E0E4E7F5E45A
:1007C00002C005900D92A433B107D9F722E0A4E34B
:1007D000B1E001C01D92AE31B207E1F70E94C51B26
:1007E0000C9481220C940000DC016B3008F03FC0B7
:1007F000E62FF0E0ED57FD4D12968C910C943122CE
:100800008823A9F18EE391E00895882381F18DE298
:1008100091E00895882359F18CE191E008958823AF
:1008200031F18BE091E00895882309F18AEF90E09F
:1008300008958823E1F089EE90E008958823B9F0C7
:1008400088ED90E00895882391F087EC90E008957A
:10085000882369F086EB90E00895882341F081EBCE
:1008600090E00895882319F08CEA90E0089590E0D4
:1008700080E008950895089581E00895089581E045
:1008800008950C943C040E94D60D2FEF84E39CE065
:10089000215080409040E1F700C000000C94081601
:1008A000EF92FF920F931F93CF93DF938C01FC0184
:1008B000E080F18080915F01811140C082818823B6
:1008C000C1F1C7010E945B13C82F682FC7010E94A6
:1008D0000413B7018C2F0E948805EC01B8010E9417
:1008E0004104882309F44BC0B801CE010E9491074E
:1008F000882309F444C0C531F0E7DF0720F5C23092
:1009000080E7D80708F04DC0C115E0E7DE0791F198
:10091000C130D047E1F181E0809336018093370107
:10092000C801DF91CF911F910F91FF90EF900C9430
:100930003F04C7010E943213C82FCBCFC7010E94CA
:100940005B13B701C8CFCC3380E7D80709F49BC04D
:10095000CD33D04701F7F8018281882309F4BAC06A
:10096000109237010E94B4159093350180933401A1
:1009700080E296C0F801828181110E94430480E0E8
:10098000DF91CF911F910F91FF90EF900895F801A3
:1009900082818823A1F38091DE0181608093DE0152
:1009A000EECFF8018281882309F4BACF0E94161590
:1009B000811102C00E94FC140E94331590E09093B4
:1009C000100280930F02FE01E350F04780910F0266
:1009D0008160E231F10538F4E257FD4D0C9431228B
:1009E00080910F02826080930F0280910F020E941B
:1009F00037150E94D60DC3CF80910F028460F3CFCC
:100A000080910F028860EFCF80910F028061EBCF61
:100A100080910F028062E7CF80910F028064E3CF64
:100A200080910F028068DFCF80910F028C60DBCF56
:100A300080910F028E7FD7CF80910F028D7FD3CF11
:100A400080910F028B7FCFCF80910F02877FCBCF1A
:100A500080910F028F7EC7CF80910F028F7DC3CF11
:100A600080910F028F7BBFCF80910F028F77BBCF1A
:100A700080910F02837FB7CF90910F02892F97FB50
:100A800087F98058B0CFF8018281882361F01092F5
:100A900036010E94B415909335018093340182E0B1
:100AA0000E943B0B6CCF8091360181110FC0809169
:100AB0003401909135010E94C015883C910530F4B5
:100AC00086E20E94100A86E20E94EC0A82E00E94FE
:100AD000420B55CF8091370181110FC080913401B5
:100AE000909135010E94C015883C910530F487E251
:100AF0000E94100A87E20E94EC0A80E2E8CF0C9480
:100B0000E0070C94E2070C943E040C9483050895CE
:100B1000972F70E027E0929F600D711D1124FB015B
:100B200093E2899FE00DF11D1124EE0FFF1FE55B9D
:100B3000FE4F859194910895FC01EE0FFF1FE5553E
:100B4000FA4F8591949108950E9488050E94150797
:100B50009C01811540E4940708F097C0211580E3BB
:100B6000380708F0FAC0203E310508F074C0203C78
:100B7000310508F0E5C0283A310588F4253A3105F9
:100B800008F0E2C02130310509F477C0C9010497AB
:100B9000813A910508F471C030E020E06EC0C901CF
:100BA000885A91094597C0F7283A310509F4FEC0E3
:100BB000293A310509F4FDC02A3A310509F4FCC08F
:100BC0002B3A310509F4FBC02C3A310509F4FAC07F
:100BD0002B3B310509F4F9C02C3B310509F4F8C071
:100BE0002D3A310509F4F7C0203B310509F4F6C070
:100BF0002E3A310509F4F5C02F3A310509F4F4C055
:100C0000213B310509F4F3C0223B310509F4F2C060
:100C1000233B310509F4F1C0243B310509F4F0C050
:100C2000253B310509F4EFC0263B310509F4EEC040
:100C3000273B310509F4EDC0283B310509F4ECC030
:100C4000293B310509F4EBC02A3B310509F4EAC020
:100C500020E034E412C0211590E2390780F42F3FE0
:100C6000310509F050F4283E310538F0C901805FA4
:100C700091093065409708F08FCFC9010895C901E7
:100C80009F700E949C059C01F8CF8115944508F047
:100C900041C0211583E5380708F06AC0211592E5A7
:100CA000390738F5211541E5340708F05CC02115F6
:100CB00080E5380708F454C0C90134E0969587955B
:100CC0003A95E1F78370422F46954695437090E23E
:100CD000499FA0011124582B822F837021E030E01E
:100CE00002C0220F331F8A95E2F7242B352B3C6874
:100CF000C4CFC9018370992741E050E002C0440F7E
:100D0000551F8A95E2F72695269580E2289F900147
:100D10001124EBCF211596E5390748F4922F882747
:100D200021153545C8F59C01246F306AA6CFC9014D
:100D300090563F708115904108F02ECF30629DCFC4
:100D4000C901805C91099DCF253A310549F1263AC8
:100D5000310549F522E830E490CF3327306C8DCF50
:100D60003F70306A8ACF322F2227216F306A85CFB9
:100D7000C9018370992741E050E002C0440F551F1C
:100D80008A95E2F72695269580E2289F9001112406
:100D9000242B352B3A6871CF88279F719C01CECFC9
:100DA00021E830E46ACF23E830E467CF22EE34E470
:100DB00064CF29EE34E461CF2AEE34E45ECF25EB34
:100DC00034E45BCF26EB34E458CF23EB34E455CF47
:100DD00024EB34E452CF27EB34E44FCF2CEC34E453
:100DE0004CCF2DEC34E449CF23E835E446CF2AE854
:100DF00035E443CF22E935E440CF24E935E43DCF63
:100E000021E236E43ACF23E236E437CF24E236E477
:100E100034CF25E236E431CF26E236E42ECF27E286
:100E200036E42BCF2AE236E428CF803E910581F1CB
:100E3000C8F48133910509F462C048F48932910500
:100E400009F456C08A32910509F460C008958933C7
:100E50009105B9F082389105A1F08533910509F427
:100E600040C00895863E910561F138F4823E9105B7
:100E7000B1F0833E9105E1F00895873E910551F16F
:100E8000089520910F022370D9F080EE90E008952C
:100E900020910F0220FF14C089E390E00895209173
:100EA0000F0222FF0DC024FD09C083EE90E00895DB
:100EB00020910F0222FD31C024FF02C090E080E0AB
:100EC000089520910F0223FFFBCF24FDF7CF87EE7B
:100ED00090E0089520910F0223FFEECF86EE90E080
:100EE000089520910F0225FFEBCF89E290E008954D
:100EF00020910F0225FFE4CF85E390E00895209133
:100F00000F0226FFDDCF8AE290E0089520910F02C4
:100F100026FFD6CF81E390E0089582EE90E0089519
:100F200008950F931F93CF938C01FB018281811150
:100F300006C0C1E08C2FCF911F910F910895C091F1
:100F40004501C11125C00531104799F70E9490074E
:100F500081E0809345010E94B415909344018093F1
:100F600043011092380110923A0110923901109207
:100F70003C0110923B0110923E0110923D011092F3
:100F8000400110923F011092420110924101D2CFD4
:100F900080914301909144010E94C015883C9105C5
:100FA00040F680913801E82FF0E0EE0FFF1FE75C7C
:100FB000FE4F118300838F5F80933801C0E0BACF6A
:100FC0000C943A040C943B04CF93DF9385B780686C
:100FD00085BF85B7806885BFAAE1B1E04FE151E0E8
:100FE000C1E0D0E08D91E82FE295EF70F0E061A1D3
:100FF0008F709E0101C0220F8A95EAF7922F90957B
:10100000962391A382A1822B82A34A175B0751F7F3
:10101000A3E1B1E061E070E08D91E82FE295EF701F
:10102000F0E041A18F709B0101C0220F8A95EAF781
:10103000922F9095942391A382A1822B82A381E089
:10104000AA31B80749F710924B011092460110924D
:101050004C011092470110924D01109248011092DC
:101060004E011092490110924F0110924A01DF91F6
:10107000CF910C947F056F927F928F929F92AF9247
:10108000BF92CF92DF92EF92FF920F931F93CF9375
:10109000DF9336E4632E31E0732E4AE1E42E41E023
:1010A000F42E01E010E0DD24D394E301C9903E0169
:1010B000DE011E92F70181917F01E82FE295EF702A
:1010C000F0E091A18F70A80101C0440F8A95EAF762
:1010D000892F842B81A382A1842E8094882182A3CE
:1010E00080EA8A95F1F763E171E090E080E0EB013E
:1010F0003991BE01A32EA2942FE0A222B12CE501CA
:1011000028A19C903F70580101C0AA0C3A95EAF7BB
:10111000A22220E031F4202F082E01C0220F0A94D1
:10112000EAF729292C9301968730910501F781A1CF
:10113000882181A382A1482B42A38C91C81641F03B
:10114000D09250010E94B4159093520180935101A6
:10115000DBE46D16D1E07D0609F0A7CF8091500148
:101160008823F1F080915101909152010E94C015A5
:101170000697B0F08091460180934B018091470122
:1011800080934C018091480180934D0180914901E9
:1011900080934E0180914A0180934F01109250013B
:1011A0000E94810581E0DF91CF911F910F91FF9007
:1011B000EF90DF90CF90BF90AF909F908F907F90F7
:1011C0006F900895E82FF0E0E55BFE4F8081089571
:1011D000089590935801809357010895E091570125
:1011E000F0915801309721F00190F081E02D0994A1
:1011F00080E00895E0915701F0915801309721F077
:101200000280F381E02D09940895E0915701F09157
:101210005801309721F00480F581E02D099408955C
:1012200020915501309156012817390771F090939C
:10123000560180935501E0915701F0915801309784
:1012400021F00680F781E02D099408952091530143
:10125000309154012817390771F09093540180930D
:101260005301E0915701F0915801309721F000842B
:10127000F185E02D0994089508950C943C090E948D
:10128000AB150E94E4070C946D16BF92CF92DF92CB
:10129000EF92FF920F931F93CF93DF9300D000D074
:1012A0000F92CDB7DEB70E943B088AE5C82E81E0D9
:1012B000D82E10E000E0E02E802F0E94E208B82E29
:1012C000F601F1906F01F81609F45BC08091DE0120
:1012D00081FD0E94E80830E020E0FB244F2D50E023
:1012E000922FBA01022E02C0759567950A94E2F713
:1012F00060FF41C02983EA8221E030E0790102C029
:10130000EE0CFF1C9A95E2F72B2D30E02E213F21A9
:1013100081E0232B09F480E08B830E94B415816067
:10132000782F9D838C8349815A816B818D810E94A6
:10133000E709F801E65AFE4F80818E2580830E94DE
:101340001A190E94EE0890915901891789F10E949B
:10135000EE08809359010F900F900F900F900F900F
:10136000DF91CF911F910F91FF90EF90DF90CF9081
:10137000BF900C9485052F5F3F4F2730310509F052
:10138000AFCF0F5F1F4F0530110509F094CF8FEFDE
:1013900089838A831B820E94B4158160782F9D8384
:1013A0008C8349815A816B818D810E94E709C7CF67
:1013B0000F900F900F900F900F90DF91CF911F9192
:1013C0000F91FF90EF90DF90CF90BF900895CF9353
:1013D000DF93CDB7DEB72B970FB6F894DEBF0FBE05
:1013E000CDBF4F83588769877A878B871E8285E0B8
:1013F000FE013796DE01119601900D928A95E1F774
:1014000049815A816B817C818D819E812B960FB69B
:10141000F894DEBF0FBECDBFDF91CF910C945E106C
:10142000882309F4D8C0823871F40E94EE0881FD47
:10143000D2C089E30E9403140E94CD1489E30E9464
:1014400040140C94CD14833859F40E94EE0880FDAA
:10145000C2C083E50E9403140E94CD1483E5EFCF40
:10146000843859F40E94EE0882FDB5C087E40E94DA
:1014700003140E94CD1487E4E2CF9CEF980F913AB9
:1014800018F40E940314DDCF90E2980F983050F4C6
:10149000877091E001C0990F8A95EAF7892F0E9421
:1014A0008414CFCF9BE5980F933070F4853A31F0D8
:1014B000863A39F083E890E00C94100981E890E0D6
:1014C000FBCF82E890E0F8CF98E5980F953108F0CF
:1014D00082C0883A09F440C0893A09F440C08A3A87
:1014E00009F440C08B3A09F440C08C3A09F440C07A
:1014F0008B3B09F440C08C3B09F440C08D3A09F4A1
:1015000040C0803B09F440C08E3A09F440C08F3A95
:1015100009F440C0813B09F440C0823B09F440C05B
:10152000833B09F440C0843B09F440C0853B09F487
:1015300040C0863B09F440C0873B09F440C0883B6B
:1015400009F440C0893B09F440C08A3B09F440C01B
:1015500090E080E00C94260982EE90E0FBCF89EECB
:1015600090E0F8CF8AEE90E0F5CF85EB90E0F2CFF7
:1015700086EB90E0EFCF83EB90E0ECCF84EB90E054
:10158000E9CF87EB90E0E6CF8CEC90E0E3CF8DECF9
:1015900090E0E0CF83E891E0DDCF8AE891E0DACF18
:1015A00082E991E0D7CF84E991E0D4CF81E292E063
:1015B000D1CF83E292E0CECF84E292E0CBCF85E23E
:1015C00092E0C8CF86E292E0C5CF87E292E0C2CF38
:1015D0008AE292E0BFCF0895882309F44BC0823895
:1015E00071F40E94EE0881FF45C089E30E94031454
:1015F0000E94CD1489E30E9440140C94CD148338CA
:1016000059F40E94EE0880FF35C083E50E94031460
:101610000E94CD1483E5EFCF843859F40E94EE0880
:1016200082FF28C087E40E9403140E94CD1487E43F
:10163000E2CF9CEF980F913AF0F290E2980F983039
:1016400050F4877091E001C0990F8A95EAF7892FCD
:101650000E948A14D2CF9BE5980F933020F490E03B
:1016600080E00C941009885A853120F490E080E0E5
:101670000C9426090895882321F00E9484140C9468
:10168000CD140895882321F00E948A140C94CD145F
:1016900008958F929F92AF92BF92DF92EF92FF9246
:1016A0000F931F93CF93DF9300D000D00F92CDB74D
:1016B000DEB77C016D837983FC01058102950F7093
:1016C000128111110E94A3140E94FC13D82E8823AA
:1016D00071F01123A1F08D81805E883080F082E06E
:1016E0000E94E6130E94FC1391E0D82ED926E981CE
:1016F000E295EF70F0E0E056FD4D0C943122D12CD4
:10170000F6CF09810F70F981F07F11F00295007F0B
:101710001123B1F0002361F08D81805E883018F0D4
:101720002D81211109C0802F0E9484140E94CD14A4
:101730008D810E94100A15C0802F0E949514F6CF4B
:101740008D810E94EC0A002361F08D81805E8830DB
:1017500018F03D81311129C0802F0E948A140E9407
:10176000CD14DD2009F4D3C10E94D91380FDCFC16F
:10177000F70112820E94D3130E941C12C7010E941B
:10178000980D0E94D3130F900F900F900F900F9011
:10179000DF91CF911F910F91FF90EF90DF90BF905D
:1017A000AF909F908F900C943E12802F0E949B14BC
:1017B000D6CF49814F70B42E5981507F503219F0E5
:1017C000B29480EFB8228D81882369F0813029F1AD
:1017D000112369F1002359F0F701858180FFA8CF1B
:1017E0008F70858304C0112361F0011104C08B2D1B
:1017F0000E943B0BB6CF8B2D0130D1F70E94B7145E
:10180000B0CF011106C00E94BA148B2D0E94420B6A
:10181000A8CF013009F4A5CFF6CF112321F006306F
:1018200008F09FCFE4CF053008F09BCFEECF002328
:1018300061F38D810E94EC0A94CF8981869586950B
:10184000837069F0813009F08CCF8D81998193701C
:10185000111102C090E080E00E94260982CF8D81A4
:1018600099819370111102C090E080E00E941009EC
:1018700078CF8D81112329F00E9428180E940F191A
:1018800070CF0E949018FACF8981837009F05FC0F1
:10189000111167CF2D81229526952770220F220FD7
:1018A0008D818F7090E0B0E0A0E04C015D01022ED0
:1018B00004C0880C991CAA1CBB1C0A94D2F7FD8199
:1018C00060E070E0CB01F4FF0FC06FE070E080E0FB
:1018D00090E004C0660F771F881F991F2A95D2F7E2
:1018E0006095709580959095298126952695237011
:1018F0002D832230B1F0233019F19B01AC0128294E
:1019000039294A295B2929833A834B835C833D81AA
:1019100069817A818B819C813130B1F00E94A9115B
:1019200020CF9B01AC01282939294A295B29298329
:101930003A834B835C83CA01B9010E94D31111CF52
:101940000E94A911C501B4010E947F110ACF86959A
:10195000112311F089818170882309F402CF2D8130
:10196000229526952770220F220F8D818F7090E08F
:10197000B0E0A0E04C015D01022E04C0880C991C6F
:10198000AA1CBB1C0A94D2F73D8160E070E0CB0139
:1019900034FF0FC06FE070E080E090E004C0660F9D
:1019A000771F881F991F2A95D2F7609570958095AB
:1019B000909549814695469543704D834230B1F0EC
:1019C000433019F19B01AC01282939294A295B29A7
:1019D00029833A834B835C833D8169817A818B8142
:1019E0009C813130B1F00E94AF12BBCE9B01AC01A3
:1019F000282939294A295B2929833A834B835C8327
:101A0000CA01B9010E94D912ACCE0E94AF12C50121
:101A1000B4010E948512A5CE3D81323F09F447C032
:101A200080F4303F79F1313FD9F1832F805E8031EE
:101A3000D0F0112309F456C001117ACE89818F713B
:101A400033C04D81433FD1F1443F99F7112309F44D
:101A50003FC089818F7189830E941C1263E0898154
:101A60000E94DD137ECE5D815F705D8389818F7101
:101A7000112321F00E941C128D81BACE0E943E12C9
:101A80008D81C4CE112341F0053008F06ACE8981E2
:101A90008F710E94631265CE063008F062CEF7CFD8
:101AA00089818F71112339F00E941C125ACE8981CD
:101AB0008F711123C9F30E943E1253CE112329F0D6
:101AC00089818F710E9407124CCE0E94FD1149CE70
:101AD00081E00E94E613023008F443CE82E00E94C7
:101AE000E6133FCE0111A5CE89818F71E4CF4981E4
:101AF0004F706D81C7010E94F4030E94F81031CE2F
:101B000049814F706D81C7010E9487052ACE0F90D1
:101B10000F900F900F900F90DF91CF911F910F9129
:101B2000FF90EF90DF90BF90AF909F908F900895BF
:101B30000F931F93CF93DF93EC018B819C81892BB3
:101B400029F08881998189238F3F29F4DF91CF91F2
:101B50001F910F910895CE010E9450048823B1F384
:101B6000688179818A810E94A9138C010E940313E4
:101B70000E947411B801CE01DF91CF911F910F9196
:101B80000C94490B0E94A3140E94B4140E94761472
:101B90000E94CD140E94001A0E940F1990E080E06C
:101BA0000E94100990E080E00C9426090E94921493
:101BB0000C94C20D0E949D13282F892F82958F703F
:101BC000903C80F48A30B0F4843020F4823090F479
:101BD00080E008958630E1F781E0203E88F0213FE3
:101BE000B9F70EC08C3011F08F3091F793FB882736
:101BF00080F9089581E0203F39F018F4203E40F745
:101C00000895243F29F7FCCF0895CF93DF9300D0A8
:101C100000D00F92CDB7DEB70F900F900F900F90BE
:101C20000F90DF91CF910895CF93DF9300D000D034
:101C300000D0CDB7DEB726960FB6F894DEBF0FBE44
:101C4000CDBFDF91CF9108951F93CF93DF93E091A4
:101C5000600116E0809161018E1304C0DF91CF9185
:101C60001F910895CE2FD0E01E9FF0011124EE5950
:101C7000FE4F4081518162817381848195810E94F0
:101C8000140EFE013196E770E5CF4091920150911C
:101C900093016091940170919501809196019091CA
:101CA00097010C94140E1F93CF93DF9380919701AB
:101CB000807FC1F4809194018823A1F0809160011C
:101CC000C0916101609192017091930140919501E1
:101CD00050919601D62FD723DA01A095B09516E042
:101CE000C81304C0DF91CF911F91089590E0411572
:101CF000510511F0DF3F31F401968770F1CF2A0FC3
:101D00003B1F17C0189FF001199FF00D1124EE59C9
:101D1000FE4F21812713F0CF20812613EDCF2281A2
:101D20002111EACF238134812417350740F3241B86
:101D3000350B283C310500F7209197012F70206169
:101D40002093970126E0289FF001299FF00D112490
:101D5000E959FE4F80818F708061808382E991E034
:101D60000E94980DDF91CF911F910C94240E9F92A9
:101D7000AF92BF92CF92DF92EF92FF920F931F9399
:101D8000CF93DF93CDB7DEB72B970FB6F894DEBFB6
:101D90000FBECDBF8C0185E0F801DE0117960190E2
:101DA0000D928A95E1F7D8014C9111965C911197AB
:101DB0001296EC9012978091950190919601009760
:101DC00009F46BC12091920130919301632F62233A
:101DD0006F3F09F462C11396CD90DC90909094010E
:101DE000992009F4F8C0C816D90608F43FC0F601D6
:101DF000E81BF90BCF01FF24F394883C910508F010
:101E0000F12C82E9A82E81E0B82E80919701982FBD
:101E1000907FFF2009F4B7C0911180C0FE2C3513CC
:101E20002AC0241328C0E11026C08F7080618093DF
:101E300097010E94450EC5010E94980D809197015F
:101E4000D80115968C938F2D2B960FB6F894DEBF84
:101E50000FBECDBFDF91CF911F910F91FF90EF90FB
:101E6000DF90CF90BF90AF909F9008958095909510
:101E70008C0D9D1DC0CFCD2829F0842F85238F3F49
:101E800009F019C180E0B82FB170DB2EE09160013C
:101E90002091610136E080FD1CC0EE20A1F280910E
:101EA0009701816080939701F12CCDCF8E2F90E028
:101EB0003E9FF0011124EE59FE4F6181651306C06B
:101EC0006081641303C062816E11E7CFFC0131961B
:101ED000E770E213EBCF4F8358878F8198850E947C
:101EE0009D13292F22952F70903260F0225F2F7062
:101EF000223078F49F7051F0F8019581907F31F491
:101F0000D12C0AC09F7011F08823D1F3805E8830F5
:101F1000B8F3C8010E94980DFD2C95CF351306C06B
:101F2000241304C0D801EE2009F47BC04F835887E6
:101F30008F8198850E94DA0D882309F4B8C0EE20BD
:101F400009F4B5C080919701803270F02091920120
:101F5000309193013A8329831B82DD82CC828E8368
:101F6000CE0101960E94980D86E0F801A2E9B1E049
:101F700001900D928A95E1F70E94530E0E94450E42
:101F8000FF24F39460CF911113C07C2DDB86CA86A9
:101F90006E2D8B850E94050E82E991E00E94980DBE
:101FA00086E0F50111928A95E9F70E94450E4BCF24
:101FB0003513BCCF2413BACFE110B8CFD801159692
:101FC0008C93C8010E94980D86E0F50111928A95C4
:101FD000E9F7F92C38CFC816D90688F1B601681B85
:101FE000790BCB01F12C883C910508F047C0FE2C01
:101FF000EE2009F45CC0351330C024132EC080914C
:10200000970180FD21C0982F907FF1F0D80115969F
:102010008C931597903F39F0982F907F905F8F7039
:10202000892B15968C93C8010E94980D86E0F801C3
:10203000A2E9B1E001900D928A95E1F7B6CF8095C3
:1020400090958C0D9D1DCECF86E0F801A2E9B1E000
:1020500001900D928A95E1F7F6CE4F8358878F81D4
:1020600098850E94DA0D81117FCF80919701816060
:1020700080939701C8010E94980DE5CE7C2DDB86E8
:10208000CA866E2D8B850E94050E86E0E2E9F1E09E
:10209000DF011D928A95E9F788CFEE2041F04F834A
:1020A00058878F8198850E94DA0D81115DCFC80114
:1020B0000E94980D65CF81E08E25E5CE1F93CF93CA
:1020C000DF93CDB7DEB72C970FB6F894DEBF0FBE07
:1020D000CDBF4F83588769877A878B879C87CE01CE
:1020E00007960E94B70E882369F08A859B85892B05
:1020F00039F04F815885842F85238F3F09F071C0B7
:1021000016E05FC086E0FE013796DE011196019071
:102110000D928A95E1F78A859B85892B89F38885BD
:102120009F8189238F3F61F32091610130E0C901D4
:10213000019687709927409160014817190671F43C
:102140000E94D60D109261011092600186E0E2E9D2
:10215000F1E0DF011D928A95E9F7D2CF96E0929FD8
:10216000D001939FB00D1124AE59BE4FFE013196A0
:1021700001900D929A95E1F7809361010E94240EDF
:10218000BFCF819FC00111248E599E4F0E94B70E70
:102190008823E9F0E09160011E9FF0011124EE59BF
:1021A000FE4F4081518162817381848195810E94BB
:1021B000140E8091600190E00196877099278093BA
:1021C000600180916001909161018913DACF2C96B2
:1021D0000FB6F894DEBF0FBECDBFDF91CF911F9138
:1021E000089569857A858B859C850E94140E88CF19
:1021F000EF92FF920F931F93CF93DF938C01892B64
:1022000089F0F12CEE24E394E8012196F801849101
:10221000843709F457C0A0F4823009F43EC048F472
:102220008130D1F0DF91CF911F910F91FF90EF900E
:1022300008959CEF980F9037A8F70E94100A0AC0E3
:10224000853709F44CC09CE7980F903758F78F7783
:102250000E94EC0A8E0116C00E5F1F4FFE01849192
:1022600090E2980F983060F48770FE2D01C0FF0F48
:102270008A95EAF78F2F0E94A6140E94CD1402C0FF
:102280000E94100A8F2D815008F4BECFEFE9FFE0C5
:102290003197F1F700C00000F6CF0E5F1F4FFE012F
:1022A000849190E2980F983050F48770FE2D01C011
:1022B000FF0F8A95EAF78F2F0E94AC14DECF0E94A1
:1022C000EC0AE0CF0E5F1F4FFE01C491C150D0F267
:1022D0008FE99FE00197F1F700C00000F7CF0E5F94
:1022E0001F4FFE01F490CECF08956093B501709317
:1022F000B6018093B7019093B8010C94C20DCF93AF
:10230000DF9300D000D0CDB7DEB769837A838B83AB
:102310009C838091B5019091B601A091B701B091D5
:10232000B80129813A814B815C81822B932BA42BAC
:10233000B52B8093B5019093B601A093B701B093EC
:10234000B8010F900F900F900F90DF91CF910C94E8
:10235000C20DCF93DF9300D000D0CDB7DEB7698335
:102360007A838B839C838091B5019091B601A09173
:10237000B701B091B80129813A814B815C818223F8
:102380009323A423B5238093B5019093B601A09322
:10239000B701B093B8010F900F900F900F90DF919D
:1023A000CF910C94C20DCF93DF9300D000D0CDB766
:1023B000DEB769837A838B839C838091B50190918A
:1023C000B601A091B701B091B80129813A814B8142
:1023D0005C8182279327A427B5278093B50190932A
:1023E000B601A093B701B093B8010F900F900F9072
:1023F0000F90DF91CF910C94C20D1092B101109209
:10240000B2011092B3011092B4010C94C20D41E0DC
:1024100050E060E070E004C0440F551F661F771F56
:102420008A95D2F74093B1015093B2016093B30102
:102430007093B4010C94C20D282F81E090E0A0E0CD
:10244000B0E004C0880F991FAA1FBB1F2A95D2F7BE
:102450004091B1015091B2016091B3017091B4010A
:10246000842B952BA62BB72B8093B1019093B201AF
:10247000A093B301B093B4010C94C20D41E050E0BD
:1024800060E070E004C0440F551F661F771F8A95F7
:10249000D2F740955095609570958091B1019091DB
:1024A000B201A091B301B091B40184239523A62376
:1024B000B7238093B1019093B201A093B301B0937D
:1024C000B4010C94C20D282F81E090E0A0E0B0E0B0
:1024D00004C0880F991FAA1FBB1F2A95D2F74091ED
:1024E000B1015091B2016091B3017091B4018427A0
:1024F0009527A627B7278093B1019093B201A093A7
:10250000B301B093B4010C94C20DCF93DF9300D00C
:1025100000D0CDB7DEB769837A838B839C838091AB
:10252000B1019091B201A091B301B091B4012981A0
:102530003A814B815C81822B932BA42BB52B80930A
:10254000B1019093B201A093B301B093B4010F9085
:102550000F900F900F90DF91CF910C94C20DCF93FD
:10256000DF9300D000D0CDB7DEB769837A838B8349
:102570009C838091B1019091B201A091B301B0917F
:10258000B40129813A814B815C8182239323A42366
:10259000B5238093B1019093B201A093B301B0939E
:1025A000B4010F900F900F900F90DF91CF910C948A
:1025B000C20DCF93DF9300D000D0CDB7DEB76983D3
:1025C0007A838B839C838091B1019091B201A09119
:1025D000B301B091B40129813A814B815C8182279A
:1025E0009327A427B5278093B1019093B201A093BC
:1025F000B301B093B4010F900F900F900F90DF9143
:10260000CF910C94C20D0895E82F27E0929FE00D22
:1026100011248E2F877041E001C0440F8A95EAF79C
:10262000E695E695E69585E0E89FF0011124E856E9
:10263000FE4F30E020E070E05191DF011197CB01B7
:10264000022E02C0969587950A94E2F781708195D3
:102650008527842385278C932F5F3F4F25303105B5
:1026600059F70895E82F27E0929FE00D11249E2F3F
:102670009770E695E695E69585E0E89FF0011124D0
:10268000E856FE4F50E040E080E0219130E0092E16
:1026900002C0369527950A94E2F721703327042E5D
:1026A00001C0220F0A94EAF7822B4F5F5F4F45303B
:1026B000510559F70895BF92CF92DF92EF92FF92A2
:1026C0000F931F93CF93DF938C01C090B101D090F3
:1026D000B201E090B301F090B4018091B501909106
:1026E000B601A091B701B091B801C82AD92AEA2A47
:1026F000FB2ACFE1D0E0BC2ED701C6010C2E04C0CE
:10270000B695A795979587950A94D2F780FD0EC048
:10271000219788F7B12C8B2DDF91CF911F910F91CD
:10272000FF90EF90DF90CF90BF900895B8018C2F6D
:102730000E94A405019761F3EECFCF93DF93D82FCA
:10274000C92F0E945B136D2F7C2FDF91CF910C94CA
:10275000A4051F93CF93DF93162FD72F90915F017E
:10276000992339F0862F972FDF91CF911F910C94E9
:102770009D13882391F0862F972F0E945B13C82FFB
:10278000682F812F9D2F0E940413612F7D2F8C2F86
:10279000DF91CF911F910C94A405862F972F0E9453
:1027A0003213C82FF2CF8091B90185958595859513
:1027B00008958091B9018770089598E0899F9001EC
:1027C0001124622B6093B9010C941C129091B901F1
:1027D000809589238093B901282F277061F4282FD1
:1027E000082E000C330B9217130629F0859585955A
:1027F00085950C943E1208959091B901977081E0EF
:1028000009F480E00895909112019923E1F09091EC
:102810000F0297FF18C0E82FE695E695E695EF3191
:1028200039F12091000130910101E20FF32FF11DE8
:10283000877021E030E001C0220F8A95EAF781819C
:10284000822B818308952091000130910101F901CB
:1028500032969FEF40E05191851751F09F3F19F458
:10286000511101C0942F4F5F4E31A9F79F3F09F4DA
:102870000895290F311D97FD3A95F9018283089536
:1028800090911201992301F190910F0297FF1CC0C2
:10289000E82FE695E695E695EF3139F120910001B4
:1028A00030910101E20FF32FF11D877021E030E03C
:1028B000A90102C0440F551F8A95E2F7CA0180950D
:1028C0009181892381830895209100013091010134
:1028D000F9013296205E3F4F9191891303C0DF01C9
:1028E00011971C92E217F307B9F7089581E090E081
:1028F000E0910001F0910101E80FF91F10820196AB
:1029000080329105A9F708959091DD01982B90935D
:10291000DD010895982F90958091DD0189238093A2
:10292000DD0108951092DD0108959091DC01982B4E
:102930009093DC010895982F90958091DC01892374
:102940008093DC0108951092DC0108959091DB01E1
:10295000982B9093DB010895982F90958091DB013F
:1029600089238093DB0108951092DB010895809301
:10297000BA0108951092BA01089520910001309192
:102980000101F9013196205E3F4F80E09191911154
:102990008F5FE217F307D1F70895E0910001F091FE
:1029A00001018091DD018083E0910001F09101013E
:1029B00080819091DC01892B8083E0910001F0916E
:1029C000010180819091DB01892B80839091BA0174
:1029D000992361F0E0910001F09101018081892B40
:1029E00080830E94BD1481111092BA018091000170
:1029F000909101010C94FA086DEE7EEF90E080E07A
:102A00000E946B2260E082E090E00E94592260E028
:102A100083E090E00E94592260E084E090E00E9410
:102A2000592260E085E090E00C94592290E080E02B
:102A30000E9453229C0181E02D3E3E4F09F080E030
:102A4000089582E090E00C944B22682F82E090E0A1
:102A50000C94592283E090E00C944B22682F83E081
:102A600090E00C94592284E090E00C944B22682F63
:102A700084E090E00C94592280911502843039F161
:102A80001092DF0188E190E020E40FB6F894A89559
:102A9000809360000FBE2093600080E00E94850557
:102AA00083B7817F846083BF83B7816083BF78945D
:102AB000889583B78E7F83BF0FB6F894A8958091D1
:102AC0006000886180936000109260000FBE0895DE
:102AD00008950895CF930E9468150E943B080E94B4
:102AE0006915C0E08C2F0E94E208811105C0CF5FFC
:102AF000C530C1F7CF91089581E0FCCF0E94D60D7B
:102B00000E94EE080C9485051F921FB61F92112497
:102B10008F939F93AF93BF938091DF01811113C077
:102B200080910B0290910C02A0910D02B0910E02C7
:102B30004196A11DB11D80930B0290930C02A093AE
:102B40000D02B0930E02BF91AF919F918F911F9094
:102B50001FBE1F90189582E084BD93E095BD9AEF4B
:102B600097BD80936E0008952FB7F89480910B0263
:102B700090910C02A0910D02B0910E022FBF08950A
:102B8000CF92DF92EF92FF929C014FB7F894809121
:102B90000B0290910C02A0910D02B0910E024FBF5A
:102BA0006C017D01EE24FF24A90170E060E0C416F1
:102BB000D506E606F70638F0821B930BFF90EF90E0
:102BC000DF90CF9008950197F7CF1F921FB61F9205
:102BD00011248F939F93AF93BF9380910B02909199
:102BE0000C02A0910D02B0910E020196A11DB11D23
:102BF00080930B0290930C02A0930D02B0930E02EF
:102C0000BF91AF919F918F911F901FBE1F901895FC
:102C10000E94F41DF8942FEF87EA91E6215080403E
:102C20009040E1F700C0000087E090EBDC0180936A
:102C30001E0290931F02A0932002B093210288E10C
:102C40009CE00FB6F894A895809360000FBE909317
:102C50006000FFCFCF92DF92EF92FF920F931F930E
:102C6000CF93C0E0E82EF12C8C2F0E94E20810E0F8
:102C700000E0C82ED12CC601002E02C09595879584
:102C80000A94E2F780FF11C0602F7C2F80E00E9441
:102C90008805E816F90649F481E0CF911F910F915C
:102CA000FF90EF90DF90CF9008950F5F1F4F073098
:102CB000110509F7CF5FC530B9F680E0EECFCF93AD
:102CC000C82F8CE20E942A16882321F08C2FCF91E6
:102CD0000C942A1680E0CF910895CF93DF9300D013
:102CE00000D0CDB7DEB70E941615811102C00E9438
:102CF000FC1495E6998308C00E943B088FE39CE989
:102D00000197F1F700C00000A981A150A983A1118A
:102D1000F3CF89E20E945F16811110C18AE20E94FE
:102D20005F1681110E94FC1485E00E945F168111DC
:102D30000E9408160E9421158093DE0187E00E9400
:102D40005F16882371F08BE10E945F16882309F4D7
:102D5000D1C09091DE01892F8D7F91FF8260809399
:102D6000DE018091DE010E9425150E94331590E05E
:102D70009093100280930F0280EE0E945F168823CA
:102D800041F090910F02892F8E7F90FF8160809398
:102D90000F0289E30E945F16882341F090910F0291
:102DA000892F8D7F91FF826080930F0282EE0E94B7
:102DB0005F16882341F090910F02892F8B7F92FF3D
:102DC000846080930F0286EE0E945F16882341F094
:102DD00090910F02892F877F93FF886080930F0265
:102DE00083EE0E945F16882341F090910F02892F95
:102DF0008F7E94FF806180930F0285E30E945F16AF
:102E0000882341F090910F02892F8F7D95FF80627A
:102E100080930F0281E30E945F16882341F0909116
:102E20000F02892F8F7B96FF806480930F0281E1D0
:102E30000E945F16882341F090910F02892F97FB23
:102E400087F9805880930F0280910F020E943715F6
:102E500087E20E945F1689838EE10E945F168823B5
:102E600019F0B981B260B9838FE10E945F1688239F
:102E700019F029812460298380E20E945F1688234B
:102E800019F039813860398381E20E945F16882306
:102E900019F049814061498382E20E945F168823CC
:102EA00019F059815062598383E20E945F1688238A
:102EB00019F089818064898384E20E945F168823E7
:102EC000B1F199819068998389810E942E15398189
:102ED000232F30E050E040E029833A834B835C832A
:102EE000CA01B9010F900F900F900F90DF91CF9111
:102EF0000C9475118EE00E945F16882339F0909132
:102F0000DE01892F8B7F92FF846029CF80E10E94B0
:102F10005F169091DE01882329F0892F877F93FF28
:102F200088601DCF892F8E7F90FF816018CFA98187
:102F3000A111CACF0E942A15282FCBCF0F900F9036
:102F40000F900F90DF91CF9108958091E20180FF63
:102F500012C06091050185E0689FB001112475954C
:102F600067957595679560387105A8F561157105C8
:102F7000A1F1862F089581FF09C06091050185E0C8
:102F8000689FB001112475956795EDCF609105019B
:102F900082FD0AC08091E3018823D1F09091040161
:102FA00060910501891728F085E0689FB001112420
:102FB000DACF869FB001112485E0869F9001879F1C
:102FC000300D1124692F70E0C9010E941D22CBCF62
:102FD00065E070E0CECF8FE7089581E0089580919D
:102FE000E20180FF0CC06091030170E07595679568
:102FF000759567956115710549F1862F089581FFD3
:1030000006C06091030170E075956795F3CF6091FC
:10301000030182FD0BC09091E3019923A1F060911F
:10302000020180910301961738F0682F70E0603834
:10303000710500F38FE70895899FC001112470E0A6
:103040000E941D22F4CF61E070E0D7CF81E00895A7
:10305000803F31F40E94A51781958093E601089581
:10306000813F19F40E94A517F8CF823F31F40E94E6
:10307000A51781958093E5010895833F19F40E9477
:10308000A517F8CF893F29F40E94EF178093E70135
:1030900008958A3F21F40E94EF178195F7CF8B3F67
:1030A00031F40E94EF1781958093E80108958C3FD9
:1030B00019F40E94EF17F8CF843F31F48091E401B6
:1030C00081608093E4010895853F21F48091E401BB
:1030D0008260F7CF863F21F48091E4018460F1CFD4
:1030E000873F21F48091E4018860EBCF883F21F491
:1030F0008091E4018061E5CF8D3F31F48091E20160
:1031000081608093E20108958E3F21F48091E20175
:103110008260F7CF8F3FB9F78091E2018460F1CFF1
:103120009091E501803F41F48091E60187FD109286
:10313000E601992371F00895813F29F48091E60119
:103140001816ACF3F6CF823F81F497FFF2CF1092BE
:10315000E5018091E6019091E701892B9091E801CA
:10316000892B49F71092E3010895833F19F419164A
:1031700074F3DFCF893F39F48091E7011816CCF65C
:103180001092E701D6CF8A3F29F48091E70187FFAB
:10319000D0CFF6CF8B3F39F48091E80187FFC9CFBC
:1031A0001092E801C6CF8C3F29F48091E8011816EF
:1031B000BCF3BFCF843F31F48091E4018E7F8093D4
:1031C000E401B7CF853F21F48091E4018D7FF7CFF3
:1031D000863F21F48091E4018B7FF1CF873F21F47A
:1031E0008091E401877FEBCF883F21F48091E40157
:1031F0008F7EE5CF8D3F31F48091E2018E7F809309
:10320000E20197CF8E3F21F48091E2018D7FF7CFCD
:103210008F3F09F08ECF8091E2018B7FF0CF84EE5B
:1032200091E00E9405090E94B4159093E1018093FA
:10323000E00108951F93CF93DF9300D000D000D01A
:10324000CDB7DEB78091E0019091E1010E94C015F9
:10325000AC018091E3012091060130E0811106C0AC
:10326000209107019AE0299F9001112442175307EA
:1032700088F02091E501A091E601A9831091E70172
:10328000B091E801BE8321110FC09A2F912B9B2B87
:1032900009F0B2C026960FB6F894DEBF0FBECDBFC0
:1032A000DF91CF911F9108958F3F19F08F5F809329
:1032B000E301121624F40E94A5178093E501809182
:1032C000E50187FF05C00E94A51781958093E50160
:1032D0002981121624F40E94A5178093E60180919B
:1032E000E60187FF05C00E94A51781958093E6013E
:1032F0008091E501882309F455C03091E6013D83B2
:10330000332309F44FC0282F880F330B440B550B80
:1033100029833A834B835C83CA01B9010E9424212B
:1033200023E333E343E35FE369837A838B839C8303
:1033300069817A818B819C810E94882169837A834B
:103340008B839C8369817A818B819C810E94EC2094
:103350006093E5018D81082E000C990BAA0BBB0B25
:1033600089839A83AB83BC83BC01CD010E94242155
:1033700023E333E343E35FE369837A838B839C83B3
:1033800069817A818B819C810E94882169837A83FB
:103390008B839C8369817A818B819C810E94EC2044
:1033A0006093E601111624F40E94EF178093E70161
:1033B0008091E70187FF05C00E94EF1781958093F8
:1033C000E7019E81191624F40E94EF178093E8010B
:1033D0008091E80187FF05C00E94EF1781958093D7
:1033E000E80126960FB6F894DEBF0FBECDBFDF9181
:1033F000CF911F910C940F198F3F09F057CF68CFD1
:1034000085E0E4EEF1E0DF011D928A95E9F7109284
:10341000E3011092E2010895809109020895CF938B
:10342000DF9300D00F92CDB7DEB720911502243084
:1034300019F523E029838A839B832093E9008FEF8A
:103440009091E800815095FD06C095ED9A95F1F7B1
:1034500000008111F5CF8091E80085FF0DC050E09C
:1034600040E063E070E0CE0101960E946C1C809108
:10347000E8008E778093E8000F900F900F90DF9117
:10348000CF910895CF93DF9300D00F92CDB7DEB7E1
:103490009C0180911502843031F582E089832058A7
:1034A00031093B832A8383E08093E9008FEF909179
:1034B000E800815095FD06C095ED9A95F1F7000062
:1034C0008111F5CF8091E80085FF0DC050E040E00C
:1034D00063E070E0CE0101960E946C1C8091E800D0
:1034E0008E778093E8000F900F900F90DF91CF912F
:1034F0000895209115022430F1F422E02093E90090
:103500002FEF3091E800215035FD06C035ED3A959A
:10351000F1F700002111F5CF2091E80025FF0BC045
:1035200050E040E065E070E00E946C1C8091E80093
:103530008E778093E8000895CF93DF93D82FC92F1B
:10354000809115028430F1F4909112019923E9F0F1
:1035500090910F0297FF19C08093E9008FEF90912F
:10356000E800815095FD06C095E19A95F1F70000BD
:103570008111F5CF8091E80050E040E060E270E01A
:1035800085FD1AC0DF91CF91089581E08093E90015
:103590008FEF9091E800815095FD06C095ED9A95CA
:1035A000F1F700008111F5CF8091E80085FFEACFA7
:1035B00050E040E068E070E08D2F9C2F0E946C1C72
:1035C0008091E8008E778093E80080E2ED2FFC2F59
:1035D000A9EEB1E001900D928A95E1F7D3CF8091E9
:1035E0001402811109C00E94F41D0E94511E809195
:1035F000E20084608093E20008951092140208951E
:10360000089508950C947E1542E061EC81E00E94DB
:10361000701D42E061EC82E00E94701D42E061ECAE
:1036200083E00E94701D42E261EC84E00C94701D06
:1036300080911702893089F148F4823009F494C0EE
:10364000833009F44FC0813041F008958A3009F485
:103650007BC08B3009F461C0089580911602813AD5
:1036600009F03FC08091E800877F8093E800809157
:103670001A0290911B02892B61F460E289EE91E0BD
:1036800070E00E94BB1C8091E8008B778093E8007B
:10369000089560E090E080E0F3CF809116028132DF
:1036A00001F580911A0290911B02009711F0039787
:1036B000C1F48091E800877F8093E8008091E80062
:1036C00082FF0BC08091F100809309028091E80095
:1036D0008B778093E8000C94A41D809115028111D2
:1036E000EDCF089580911602813AD9F780911A02A0
:1036F00090911B02892BA9F78091E800877F809326
:10370000E8008091E80080FFFCCF80911201809357
:10371000F1008091E8008E77DCCF80911602813233
:1037200001F780911A0290911B02892BD1F68091AA
:10373000E800877F8093E8000E94A41D8091180212
:10374000809312010C94D60D80911602813249F6B5
:103750008091E800877F8093E8000E94A41D8091FB
:10376000190280930A02089580911602813A09F0A5
:10377000B8CF8091E800877F8093E8008091E800CF
:1037800080FFFCCF80910A02C2CF84B7877F84BFBD
:103790000FB6F894A89580916000886180936000CE
:1037A000109260000FBE80E880936100109261006B
:1037B0000E943D090E94F41D0E94511E8091E2006A
:1037C00084608093E20078940E94D1200E943F0997
:1037D00088E091E00E94E90880911502853019F097
:1037E0000E944509F9CF0E943C158091130288235D
:1037F00099F30E946A15882379F30E94561CECCF36
:103800009C01DA01892F992783309105C1F068F472
:103810008130910509F445C0029761F48DE690E08E
:103820002BED35E02D933C93089581329105E1F025
:10383000829739F190E080E030E020E0F3CFC901D9
:103840009927213059F08230910559F0E7EDF5E0E4
:10385000892B81F7849190E09F01E4CFEFEBF5E0B5
:10386000F9CFEBEAF5E0F6CF643020F7E62FF0E091
:10387000EE0FFF1FE55DFE4F2081318189E090E072
:10388000D1CF6430B8F670E0FB01EE0FFF1FED5DA5
:10389000FE4F20813181615E7E4FFB01808190E08F
:1038A000C1CF82E190E028E436E0BCCF80E189BD61
:1038B00082E189BD09B400FEFDCF8091D8008F7DE3
:1038C0008093D8008091E00082608093E000809136
:1038D000E00081FDFCCF0895AF92BF92CF92DF92BE
:1038E000FF920F931F93CF93DF936C01EB018A013B
:1038F0000E94C31DF82E811123C00115110539F056
:10390000F80180819181C81BD90BC80ED91EB12C3A
:10391000A12C2097A9F08091E80085FD22C080911C
:10392000E8008E778093E80001151105A1F0F801F9
:1039300080819181A80EB91EB182A08285E0F82E07
:103940008F2DDF91CF911F910F91FF90DF90CF903E
:10395000BF90AF9008950E94C31D8823D1F2F82E26
:10396000EFCFF60181916F018093F1002197FFEF76
:10397000AF1ABF0ACECFFC01CB0120911C023091BF
:103980001D022617370790F0009729F42091E800D0
:103990002E772093E80040E0009751F4411108C0D1
:1039A0008091E80082FF31C080E00895C901F3CF23
:1039B000209115022223A9F12530A9F12091E800D8
:1039C00023FD2DC02091E80022FDEACF2091E800E0
:1039D00020FFE2CF3091F3002091F200009719F020
:1039E0002830310558F041E02830310509F040E039
:1039F0002091E8002E772093E800CECF41914093AC
:103A0000F10001972F5F3F4FE9CF80911502882386
:103A100041F0853041F08091E80083FFC1CF81E023
:103A2000089582E0089583E00895FC01CB01209180
:103A30001C0230911D022617370790F0009729F4D9
:103A40002091E8002E772093E80040E0009751F4A1
:103A5000411108C08091E80082FF32C080E00895E3
:103A6000C901F3CF209115022223B1F12530B1F124
:103A70002091E80023FD2EC02091E80022FDEACF2E
:103A80002091E80020FFE2CF3091F3002091F20076
:103A9000009719F02830310558F041E02830310501
:103AA00009F040E02091E8002E772093E800CECF87
:103AB00044914093F100319601972F5F3F4FE8CF3B
:103AC00080911502882341F0853041F08091E80013
:103AD00083FFC0CF81E0089582E0089583E00895D8
:103AE000982F973028F08F708093E90081E0089537
:103AF0009093E900242F762F50E0981731F07091C1
:103B0000EC002091ED005091F00021FD02C09F5F7C
:103B1000E8CF3091EB003E7F3093EB003091ED0029
:103B20003D7F3093ED003091EB0031603093EB003E
:103B30007093EC002093ED005093F0002091EE0084
:103B400027FDE5CF80E008958091160287FF13C01E
:103B50008091E80082FF06C08091E8008B77809317
:103B6000E80004C0809115028111F2CF0895809180
:103B700015028823D9F38091E80080FFF8CF809167
:103B8000E8008E77ECCF2091E4003091E50095E6D7
:103B9000A9012091EC00822F817020FF06C0809146
:103BA000E80080FF06C080E008952091E80022FD33
:103BB0001AC080911502882389F0853089F08091A0
:103BC000EB0085FD0FC02091E4003091E500421725
:103BD0005307F9F29150E1F684E0089582E00895E8
:103BE00083E0089581E008950E94621E0E946A1E8B
:103BF000E0EEF0E0808181608083E8EDF0E080819C
:103C00008F77808319BCA7EDB0E08C918E7F8C9369
:103C100080818F7E80831092140208950F931F93EA
:103C2000CF93DF930E94621E0E946A1EC8EDD0E00F
:103C300088818F77888388818068888388818F7D59
:103C4000888319BC1092150210921102109213026F
:103C50001092120200EE10E0F80180818B7F8083C9
:103C600088818160888342E060E080E00E94701D6E
:103C7000E1EEF0E080818E7F8083E2EEF0E08081F3
:103C800081608083808188608083F80180818E7F5D
:103C90008083888180618883DF91CF911F910F910C
:103CA0000895E8EDF0E080818F7E8083E7EDF0E01D
:103CB00080818160808384E082BF81E080931402F0
:103CC0000C940E1EE8EDF0E080818E7F80831092D0
:103CD000E20008951092DA001092E10008951F9218
:103CE0000F920FB60F9211242F933F934F935F9330
:103CF0006F937F938F939F93AF93BF93EF93FF93B4
:103D00008091E10082FF0BC08091E20082FF07C03A
:103D10008091E1008B7F8093E1000E94D020809110
:103D2000DA0080FF19C08091D80080FF15C0809113
:103D3000DA008E7F8093DA008091D90080FF94C0F2
:103D400080E189BD82E189BD09B400FEFDCF81E03B
:103D5000809315020E94EF1A8091E10080FF19C044
:103D60008091E20080FF15C08091E2008E7F8093F9
:103D7000E2008091E20080618093E2008091D800AF
:103D800080628093D80019BC85E0809315020E9460
:103D9000011B8091E10084FF29C08091E20084FF33
:103DA00025C080E189BD82E189BD09B400FEFDCF57
:103DB0008091D8008F7D8093D8008091E1008F7E24
:103DC0008093E1008091E2008F7E8093E2008091F9
:103DD000E20081608093E20080911102882309F45F
:103DE00049C084E0809315020E94021B8091E1008B
:103DF00083FF29C08091E20083FF25C08091E1000C
:103E0000877F8093E10082E0809315021092110277
:103E10008091E1008E7F8093E1008091E2008E7FAF
:103E20008093E2008091E20080618093E20042E0B2
:103E300060E080E00E94701D8091F00088608093B7
:103E4000F0000E94001BFF91EF91BF91AF919F91F5
:103E50008F917F916F915F914F913F912F910F9033
:103E60000FBE0F901F90189519BC109215020E945A
:103E7000FD1A72CF8091E30087FD02C081E0B2CFCE
:103E800083E0B0CF1F920F920FB60F9211242F93A1
:103E90003F934F935F936F937F938F939F93AF93D2
:103EA000BF93CF93DF93EF93FF93D091E900DF703F
:103EB0008091EC00C82FC17080FDC0E81092E9002D
:103EC0008091F000877F8093F00078940E94861F95
:103ED0001092E9008091F00088608093F000CD2B73
:103EE000CF70C093E900FF91EF91DF91CF91BF9127
:103EF000AF919F918F917F916F915F914F913F9182
:103F00002F910F900FBE0F901F9018951F93CF9376
:103F1000DF93CDB7DEB7AA970FB6F894DEBF0FBE1A
:103F2000CDBF86E192E0FC0101962091F100208353
:103F300022E08E319207B9F70E94181B8091E800A9
:103F400083FF16C180911602909117029A3008F0F3
:103F50000FC1E92FF0E0E055FD4D0C94312280387F
:103F600081F0823809F004C180911A028F70809329
:103F7000E9008091EB0085FB882780F91092E90029
:103F800006C080911202909113029111826090916B
:103F9000E800977F9093E8008093F1001092F10081
:103FA0008091E8008E77E0C0882309F4CEC082308B
:103FB00009F0DEC0809118028111D1C080911A02EF
:103FC0008F7009F4D5C08093E9002091EB0020FFA9
:103FD000C6C0933031F48091EB0080628093EB0097
:103FE000BEC09091EB0090619093EB0021E030E037
:103FF00001C0220F8A95EAF72093EA001092EA00A6
:104000008091EB008860EACF8111B2C01091180254
:104010001F778091E3008078812B8093E30080916B
:10402000E800877F8093E8000E94A41D8091E8004B
:1040300080FFFCCF8091E30080688093E30082E002
:10404000111183E08093150293C08058823008F0EC
:104050008FC080911802909119028C3D23E0920745
:10406000A1F583E08A838AE289834FB7F894DE0161
:10407000139620E03EE051E2E32FF0E0509357002A
:10408000E49120FF03C0E295EF703F5FEF708E2F49
:1040900090E0EA30C0F0C7968D939D932F5F243156
:1040A00059F74FBF8091E800877F8093E8006AE26C
:1040B00070E0CE0101960E94BB1C8091E8008B77D6
:1040C0008093E80055C0C096E7CFAE014F5F5F4FC9
:1040D00060911A020E94001CBC01892B09F448C09F
:1040E0008091E800877F8093E80089819A810E940F
:1040F000151DE3CF8038E1F58091E800877F80933C
:10410000E800809111028093F1004ACF811130C004
:1041100090911802923060F58091E800877F80933B
:10412000E800909311020E94A41D8091110288233F
:1041300011F084E005C08091E30087FDFACF81E0B3
:10414000809315020E94041B13C0809118028130D5
:1041500079F481E0933009F080E0809313021092AB
:10416000E9008091E800877F8093E8000E94A41D09
:104170008091E80083FF0AC08091E800877F8093E8
:10418000E8008091EB0080628093EB00AA960FB666
:10419000F894DEBF0FBECDBFDF91CF911F91089580
:1041A0000895CF93809115028823A1F0C091E90072
:1041B000CF709091EC00892F817090FD80E8C82B22
:1041C0001092E9008091E80083FD0E94861FCF7065
:1041D000C093E900CF9108950E94F3206894B11133
:1041E0000C94822108950E94672188F09F5798F0CF
:1041F000B92F9927B751B0F0E1F0660F771F881FEC
:10420000991F1AF0BA95C9F714C0B13091F00E9405
:104210008121B1E008950C948121672F782F8827A0
:10422000B85F39F0B93FCCF3869577956795B3952C
:10423000D9F73EF490958095709561957F4F8F4F9B
:104240009F4F0895E89409C097FB3EF490958095A0
:10425000709561957F4F8F4F9F4F9923A9F0F92F4C
:1042600096E9BB279395F695879577956795B795CA
:10427000F111F8CFFAF4BB0F11F460FF1BC06F5FB0
:104280007F4F8F4F9F4F16C0882311F096E911C0C2
:10429000772321F09EE8872F762F05C0662371F0E3
:1042A00096E8862F70E060E02AF09A95660F771FF7
:1042B000881FDAF7880F9695879597F9089557FD27
:1042C0009058440F551F59F05F3F71F04795880F84
:1042D00097FB991F61F09F3F79F08795089512161B
:1042E00013061406551FF2CF4695F1DF08C01616C7
:1042F00017061806991FF1CF869571056105089478
:104300000895E894BB2766277727CB0197F908958E
:104310000E949B210C940C220E94FE2138F00E94E6
:10432000052220F0952311F00C94F5210C94FB212B
:1043300011240C9482210E945F2170F3959FC1F398
:10434000950F50E0551F629FF001729FBB27F00D43
:10435000B11D639FAA27F00DB11DAA1F649F662798
:10436000B00DA11D661F829F2227B00DA11D621FE7
:10437000739FB00DA11D621F839FA00D611D221FA1
:10438000749F3327A00D611D231F849F600D211D85
:10439000822F762F6A2F11249F5750409AF0F1F008
:1043A00088234AF0EE0FFF1FBB1F661F771F881F71
:1043B00091505040A9F79E3F510580F00C94F52193
:1043C0000C9482215F3FE4F3983ED4F38695779571
:1043D0006795B795F795E7959F5FC1F7FE2B880F17
:1043E000911D9695879597F9089597F99F6780E8AD
:1043F00070E060E008959FEF80EC089500240A9437
:104400001616170618060906089500240A941216AF
:104410001306140605060895092E0394000C11F4E2
:10442000882352F0BB0F40F4BF2B11F460FF04C08F
:104430006F5F7F4F8F4F9F4F089597FB072E16F4A6
:10444000009407D077FD09D00E94372207FC05D0E1
:104450003EF4909581959F4F0895709561957F4F9B
:104460000895EE0FFF1F0590F491E02D0994AA1B0B
:10447000BB1B51E107C0AA1FBB1FA617B70710F04F
:10448000A61BB70B881F991F5A95A9F78095909581
:10449000BC01CD010895F999FECF92BD81BDF89A76
:1044A000992780B50895A8E1B0E042E050E00C946F
:1044B0007322262FF999FECF92BD81BDF89A0197FC
:1044C00000B4021639F01FBA20BD0FB6F894FA9A5C
:1044D000F99A0FBE08950196272F0E945A220C9434
:1044E0005922DC01CB01FC01F999FECF06C0F2BDD7
:1044F000E1BDF89A319600B40D9241505040B8F7A2
:104500000895F894FFCF000405040A040F0414046E
:1045100019041E04230428042D043204F004FC04AE
:104520000005040508050C051005140518051C05F3
:104530002005240528052C053005340538053C05E3
:10454000810B810BD90BD90B1D0C390CB10BB10BA5
:10455000440CB10B0C0D0C0D770DB10BB10B800D94
:10456000AF1FD41FB820D41FB82004202520B820A6
:044570007A20862007
:10457400BB012808140A321E0C1A9C1A791A421A12
:104584000F1A0190946697C6343536323331F740AA
:104594004D36391607C90693065A06ED0506061F59
:0445A40006380600CF
:00000001FF
